{
  "_format": "hh-sol-artifact-1",
  "contractName": "BEEPER",
  "sourceName": "src/BEEPER.sol",
  "abi": [
    {
      "inputs": [],
      "stateMutability": "nonpayable",
      "type": "constructor"
    },
    {
      "anonymous": false,
      "inputs": [
        {
          "indexed": true,
          "internalType": "address",
          "name": "owner",
          "type": "address"
        },
        {
          "indexed": true,
          "internalType": "address",
          "name": "approved",
          "type": "address"
        },
        {
          "indexed": true,
          "internalType": "uint256",
          "name": "tokenId",
          "type": "uint256"
        }
      ],
      "name": "Approval",
      "type": "event"
    },
    {
      "anonymous": false,
      "inputs": [
        {
          "indexed": true,
          "internalType": "address",
          "name": "owner",
          "type": "address"
        },
        {
          "indexed": true,
          "internalType": "address",
          "name": "operator",
          "type": "address"
        },
        {
          "indexed": false,
          "internalType": "bool",
          "name": "approved",
          "type": "bool"
        }
      ],
      "name": "ApprovalForAll",
      "type": "event"
    },
    {
      "anonymous": false,
      "inputs": [
        {
          "indexed": false,
          "internalType": "uint8",
          "name": "version",
          "type": "uint8"
        }
      ],
      "name": "Initialized",
      "type": "event"
    },
    {
      "anonymous": false,
      "inputs": [
        {
          "indexed": true,
          "internalType": "address",
          "name": "previousOwner",
          "type": "address"
        },
        {
          "indexed": true,
          "internalType": "address",
          "name": "newOwner",
          "type": "address"
        }
      ],
      "name": "OwnershipTransferred",
      "type": "event"
    },
    {
      "anonymous": false,
      "inputs": [
        {
          "indexed": false,
          "internalType": "address",
          "name": "account",
          "type": "address"
        }
      ],
      "name": "Paused",
      "type": "event"
    },
    {
      "anonymous": false,
      "inputs": [
        {
          "indexed": true,
          "internalType": "bytes32",
          "name": "role",
          "type": "bytes32"
        },
        {
          "indexed": true,
          "internalType": "bytes32",
          "name": "previousAdminRole",
          "type": "bytes32"
        },
        {
          "indexed": true,
          "internalType": "bytes32",
          "name": "newAdminRole",
          "type": "bytes32"
        }
      ],
      "name": "RoleAdminChanged",
      "type": "event"
    },
    {
      "anonymous": false,
      "inputs": [
        {
          "indexed": true,
          "internalType": "bytes32",
          "name": "role",
          "type": "bytes32"
        },
        {
          "indexed": true,
          "internalType": "address",
          "name": "account",
          "type": "address"
        },
        {
          "indexed": true,
          "internalType": "address",
          "name": "sender",
          "type": "address"
        }
      ],
      "name": "RoleGranted",
      "type": "event"
    },
    {
      "anonymous": false,
      "inputs": [
        {
          "indexed": true,
          "internalType": "bytes32",
          "name": "role",
          "type": "bytes32"
        },
        {
          "indexed": true,
          "internalType": "address",
          "name": "account",
          "type": "address"
        },
        {
          "indexed": true,
          "internalType": "address",
          "name": "sender",
          "type": "address"
        }
      ],
      "name": "RoleRevoked",
      "type": "event"
    },
    {
      "anonymous": false,
      "inputs": [
        {
          "indexed": true,
          "internalType": "address",
          "name": "from",
          "type": "address"
        },
        {
          "indexed": true,
          "internalType": "address",
          "name": "to",
          "type": "address"
        },
        {
          "indexed": true,
          "internalType": "uint256",
          "name": "tokenId",
          "type": "uint256"
        }
      ],
      "name": "Transfer",
      "type": "event"
    },
    {
      "anonymous": false,
      "inputs": [
        {
          "indexed": false,
          "internalType": "address",
          "name": "account",
          "type": "address"
        }
      ],
      "name": "Unpaused",
      "type": "event"
    },
    {
      "inputs": [],
      "name": "DEFAULT_ADMIN_ROLE",
      "outputs": [
        {
          "internalType": "bytes32",
          "name": "",
          "type": "bytes32"
        }
      ],
      "stateMutability": "view",
      "type": "function"
    },
    {
      "inputs": [],
      "name": "MINTER_ROLE",
      "outputs": [
        {
          "internalType": "bytes32",
          "name": "",
          "type": "bytes32"
        }
      ],
      "stateMutability": "view",
      "type": "function"
    },
    {
      "inputs": [],
      "name": "PAUSER_ROLE",
      "outputs": [
        {
          "internalType": "bytes32",
          "name": "",
          "type": "bytes32"
        }
      ],
      "stateMutability": "view",
      "type": "function"
    },
    {
      "inputs": [
        {
          "internalType": "address",
          "name": "to",
          "type": "address"
        },
        {
          "internalType": "uint256",
          "name": "tokenId",
          "type": "uint256"
        }
      ],
      "name": "approve",
      "outputs": [],
      "stateMutability": "nonpayable",
      "type": "function"
    },
    {
      "inputs": [
        {
          "internalType": "address",
          "name": "owner",
          "type": "address"
        }
      ],
      "name": "balanceOf",
      "outputs": [
        {
          "internalType": "uint256",
          "name": "",
          "type": "uint256"
        }
      ],
      "stateMutability": "view",
      "type": "function"
    },
    {
      "inputs": [
        {
          "internalType": "uint256",
          "name": "tokenId",
          "type": "uint256"
        }
      ],
      "name": "burn",
      "outputs": [],
      "stateMutability": "nonpayable",
      "type": "function"
    },
    {
      "inputs": [
        {
          "internalType": "uint256",
          "name": "tokenId",
          "type": "uint256"
        }
      ],
      "name": "getApproved",
      "outputs": [
        {
          "internalType": "address",
          "name": "",
          "type": "address"
        }
      ],
      "stateMutability": "view",
      "type": "function"
    },
    {
      "inputs": [
        {
          "internalType": "bytes32",
          "name": "role",
          "type": "bytes32"
        }
      ],
      "name": "getRoleAdmin",
      "outputs": [
        {
          "internalType": "bytes32",
          "name": "",
          "type": "bytes32"
        }
      ],
      "stateMutability": "view",
      "type": "function"
    },
    {
      "inputs": [
        {
          "internalType": "bytes32",
          "name": "role",
          "type": "bytes32"
        },
        {
          "internalType": "address",
          "name": "account",
          "type": "address"
        }
      ],
      "name": "grantRole",
      "outputs": [],
      "stateMutability": "nonpayable",
      "type": "function"
    },
    {
      "inputs": [
        {
          "internalType": "bytes32",
          "name": "role",
          "type": "bytes32"
        },
        {
          "internalType": "address",
          "name": "account",
          "type": "address"
        }
      ],
      "name": "hasRole",
      "outputs": [
        {
          "internalType": "bool",
          "name": "",
          "type": "bool"
        }
      ],
      "stateMutability": "view",
      "type": "function"
    },
    {
      "inputs": [],
      "name": "initialize",
      "outputs": [],
      "stateMutability": "nonpayable",
      "type": "function"
    },
    {
      "inputs": [
        {
          "internalType": "address",
          "name": "owner",
          "type": "address"
        },
        {
          "internalType": "address",
          "name": "operator",
          "type": "address"
        }
      ],
      "name": "isApprovedForAll",
      "outputs": [
        {
          "internalType": "bool",
          "name": "",
          "type": "bool"
        }
      ],
      "stateMutability": "view",
      "type": "function"
    },
    {
      "inputs": [],
      "name": "name",
      "outputs": [
        {
          "internalType": "string",
          "name": "",
          "type": "string"
        }
      ],
      "stateMutability": "view",
      "type": "function"
    },
    {
      "inputs": [],
      "name": "owner",
      "outputs": [
        {
          "internalType": "address",
          "name": "",
          "type": "address"
        }
      ],
      "stateMutability": "view",
      "type": "function"
    },
    {
      "inputs": [
        {
          "internalType": "uint256",
          "name": "tokenId",
          "type": "uint256"
        }
      ],
      "name": "ownerOf",
      "outputs": [
        {
          "internalType": "address",
          "name": "",
          "type": "address"
        }
      ],
      "stateMutability": "view",
      "type": "function"
    },
    {
      "inputs": [],
      "name": "pause",
      "outputs": [],
      "stateMutability": "nonpayable",
      "type": "function"
    },
    {
      "inputs": [],
      "name": "paused",
      "outputs": [
        {
          "internalType": "bool",
          "name": "",
          "type": "bool"
        }
      ],
      "stateMutability": "view",
      "type": "function"
    },
    {
      "inputs": [],
      "name": "renounceOwnership",
      "outputs": [],
      "stateMutability": "nonpayable",
      "type": "function"
    },
    {
      "inputs": [
        {
          "internalType": "bytes32",
          "name": "role",
          "type": "bytes32"
        },
        {
          "internalType": "address",
          "name": "account",
          "type": "address"
        }
      ],
      "name": "renounceRole",
      "outputs": [],
      "stateMutability": "nonpayable",
      "type": "function"
    },
    {
      "inputs": [
        {
          "internalType": "bytes32",
          "name": "role",
          "type": "bytes32"
        },
        {
          "internalType": "address",
          "name": "account",
          "type": "address"
        }
      ],
      "name": "revokeRole",
      "outputs": [],
      "stateMutability": "nonpayable",
      "type": "function"
    },
    {
      "inputs": [
        {
          "internalType": "address",
          "name": "to",
          "type": "address"
        }
      ],
      "name": "safeMint",
      "outputs": [],
      "stateMutability": "nonpayable",
      "type": "function"
    },
    {
      "inputs": [
        {
          "internalType": "address",
          "name": "from",
          "type": "address"
        },
        {
          "internalType": "address",
          "name": "to",
          "type": "address"
        },
        {
          "internalType": "uint256",
          "name": "tokenId",
          "type": "uint256"
        }
      ],
      "name": "safeTransferFrom",
      "outputs": [],
      "stateMutability": "nonpayable",
      "type": "function"
    },
    {
      "inputs": [
        {
          "internalType": "address",
          "name": "from",
          "type": "address"
        },
        {
          "internalType": "address",
          "name": "to",
          "type": "address"
        },
        {
          "internalType": "uint256",
          "name": "tokenId",
          "type": "uint256"
        },
        {
          "internalType": "bytes",
          "name": "data",
          "type": "bytes"
        }
      ],
      "name": "safeTransferFrom",
      "outputs": [],
      "stateMutability": "nonpayable",
      "type": "function"
    },
    {
      "inputs": [
        {
          "internalType": "address",
          "name": "operator",
          "type": "address"
        },
        {
          "internalType": "bool",
          "name": "approved",
          "type": "bool"
        }
      ],
      "name": "setApprovalForAll",
      "outputs": [],
      "stateMutability": "nonpayable",
      "type": "function"
    },
    {
      "inputs": [
        {
          "internalType": "string",
          "name": "newURI",
          "type": "string"
        }
      ],
      "name": "setBaseURI",
      "outputs": [],
      "stateMutability": "nonpayable",
      "type": "function"
    },
    {
      "inputs": [
        {
          "internalType": "bytes4",
          "name": "interfaceId",
          "type": "bytes4"
        }
      ],
      "name": "supportsInterface",
      "outputs": [
        {
          "internalType": "bool",
          "name": "",
          "type": "bool"
        }
      ],
      "stateMutability": "view",
      "type": "function"
    },
    {
      "inputs": [],
      "name": "symbol",
      "outputs": [
        {
          "internalType": "string",
          "name": "",
          "type": "string"
        }
      ],
      "stateMutability": "view",
      "type": "function"
    },
    {
      "inputs": [
        {
          "internalType": "uint256",
          "name": "tokenId",
          "type": "uint256"
        }
      ],
      "name": "tokenURI",
      "outputs": [
        {
          "internalType": "string",
          "name": "",
          "type": "string"
        }
      ],
      "stateMutability": "view",
      "type": "function"
    },
    {
      "inputs": [
        {
          "internalType": "address",
          "name": "from",
          "type": "address"
        },
        {
          "internalType": "address",
          "name": "to",
          "type": "address"
        },
        {
          "internalType": "uint256",
          "name": "tokenId",
          "type": "uint256"
        }
      ],
      "name": "transferFrom",
      "outputs": [],
      "stateMutability": "nonpayable",
      "type": "function"
    },
    {
      "inputs": [
        {
          "internalType": "address",
          "name": "newOwner",
          "type": "address"
        }
      ],
      "name": "transferOwnership",
      "outputs": [],
      "stateMutability": "nonpayable",
      "type": "function"
    },
    {
      "inputs": [],
      "name": "unpause",
      "outputs": [],
      "stateMutability": "nonpayable",
      "type": "function"
    }
  ],
  "bytecode": "0x60806040523480156200001157600080fd5b50620000226200002860201b60201c565b620001d3565b600060019054906101000a900460ff16156200007b576040517f08c379a0000000000000000000000000000000000000000000000000000000008152600401620000729062000176565b60405180910390fd5b60ff801660008054906101000a900460ff1660ff161015620000ed5760ff6000806101000a81548160ff021916908360ff1602179055507f7f26b83ff96e1f2b6a682f133852f6798a09c465da95921460cefb384740249860ff604051620000e49190620001b6565b60405180910390a15b565b600082825260208201905092915050565b7f496e697469616c697a61626c653a20636f6e747261637420697320696e69746960008201527f616c697a696e6700000000000000000000000000000000000000000000000000602082015250565b60006200015e602783620000ef565b91506200016b8262000100565b604082019050919050565b6000602082019050818103600083015262000191816200014f565b9050919050565b600060ff82169050919050565b620001b08162000198565b82525050565b6000602082019050620001cd6000830184620001a5565b92915050565b61443e80620001e36000396000f3fe608060405234801561001057600080fd5b50600436106101e55760003560e01c806370a082311161010f578063a22cb465116100a2578063d547741f11610071578063d547741f1461052e578063e63ab1e91461054a578063e985e9c514610568578063f2fde38b14610598576101e5565b8063a22cb465146104a8578063b88d4fde146104c4578063c87b56dd146104e0578063d539139314610510576101e5565b80638da5cb5b116100de5780638da5cb5b1461041e57806391d148541461043c57806395d89b411461046c578063a217fddf1461048a576101e5565b806370a08231146103d0578063715018a6146104005780638129fc1c1461040a5780638456cb5914610414576101e5565b806336568abe1161018757806342966c681161015657806342966c681461034a57806355f804b3146103665780635c975abb146103825780636352211e146103a0576101e5565b806336568abe146102ec5780633f4ba83a1461030857806340d097c31461031257806342842e0e1461032e576101e5565b8063095ea7b3116101c3578063095ea7b31461026857806323b872dd14610284578063248a9ca3146102a05780632f2ff15d146102d0576101e5565b806301ffc9a7146101ea57806306fdde031461021a578063081812fc14610238575b600080fd5b61020460048036038101906101ff9190612b5f565b6105b4565b6040516102119190612ba7565b60405180910390f35b6102226105c6565b60405161022f9190612c52565b60405180910390f35b610252600480360381019061024d9190612caa565b610658565b60405161025f9190612d18565b60405180910390f35b610282600480360381019061027d9190612d5f565b61069e565b005b61029e60048036038101906102999190612d9f565b6107b5565b005b6102ba60048036038101906102b59190612e28565b610815565b6040516102c79190612e64565b60405180910390f35b6102ea60048036038101906102e59190612e7f565b610835565b005b61030660048036038101906103019190612e7f565b610856565b005b6103106108d9565b005b61032c60048036038101906103279190612ebf565b61090e565b005b61034860048036038101906103439190612d9f565b610964565b005b610364600480360381019061035f9190612caa565b610984565b005b610380600480360381019061037b9190612f51565b6109e0565b005b61038a610a05565b6040516103979190612ba7565b60405180910390f35b6103ba60048036038101906103b59190612caa565b610a1c565b6040516103c79190612d18565b60405180910390f35b6103ea60048036038101906103e59190612ebf565b610acd565b6040516103f79190612fad565b60405180910390f35b610408610b84565b005b610412610b98565b005b61041c610dc3565b005b610426610df8565b6040516104339190612d18565b60405180910390f35b61045660048036038101906104519190612e7f565b610e22565b6040516104639190612ba7565b60405180910390f35b610474610e8d565b6040516104819190612c52565b60405180910390f35b610492610f1f565b60405161049f9190612e64565b60405180910390f35b6104c260048036038101906104bd9190612ff4565b610f26565b005b6104de60048036038101906104d99190613164565b610f3c565b005b6104fa60048036038101906104f59190612caa565b610f9e565b6040516105079190612c52565b60405180910390f35b610518611006565b6040516105259190612e64565b60405180910390f35b61054860048036038101906105439190612e7f565b61102a565b005b61055261104b565b60405161055f9190612e64565b60405180910390f35b610582600480360381019061057d91906131e7565b61106f565b60405161058f9190612ba7565b60405180910390f35b6105b260048036038101906105ad9190612ebf565b611103565b005b60006105bf82611186565b9050919050565b6060606580546105d590613256565b80601f016020809104026020016040519081016040528092919081815260200182805461060190613256565b801561064e5780601f106106235761010080835404028352916020019161064e565b820191906000526020600020905b81548152906001019060200180831161063157829003601f168201915b5050505050905090565b600061066382611200565b6069600083815260200190815260200160002060009054906101000a900473ffffffffffffffffffffffffffffffffffffffff169050919050565b60006106a982610a1c565b90508073ffffffffffffffffffffffffffffffffffffffff168373ffffffffffffffffffffffffffffffffffffffff1603610719576040517f08c379a0000000000000000000000000000000000000000000000000000000008152600401610710906132f9565b60405180910390fd5b8073ffffffffffffffffffffffffffffffffffffffff1661073861124b565b73ffffffffffffffffffffffffffffffffffffffff16148061076757506107668161076161124b565b61106f565b5b6107a6576040517f08c379a000000000000000000000000000000000000000000000000000000000815260040161079d9061338b565b60405180910390fd5b6107b08383611253565b505050565b6107c66107c061124b565b8261130c565b610805576040517f08c379a00000000000000000000000000000000000000000000000000000000081526004016107fc9061341d565b60405180910390fd5b6108108383836113a1565b505050565b600060fb6000838152602001908152602001600020600101549050919050565b61083e82610815565b61084781611607565b610851838361161b565b505050565b61085e61124b565b73ffffffffffffffffffffffffffffffffffffffff168173ffffffffffffffffffffffffffffffffffffffff16146108cb576040517f08c379a00000000000000000000000000000000000000000000000000000000081526004016108c2906134af565b60405180910390fd5b6108d582826116fc565b5050565b7f65d7a28e3265b37a6474929f336521b332c1681b933f6cb9f3376673440d862a61090381611607565b61090b6117de565b50565b7f9f2df0fed2c77648de5860a4cc508cd0818c85b8b8a1ab4ceeef8d981c8956a661093881611607565b600161015f600082825461094c91906134fe565b925050819055506109608261015f54611841565b5050565b61097f83838360405180602001604052806000815250610f3c565b505050565b61099561098f61124b565b8261130c565b6109d4576040517f08c379a00000000000000000000000000000000000000000000000000000000081526004016109cb9061341d565b60405180910390fd5b6109dd8161185f565b50565b6000801b6109ed81611607565b828261016091826109ff9291906136e9565b50505050565b6000609760009054906101000a900460ff16905090565b6000806067600084815260200190815260200160002060009054906101000a900473ffffffffffffffffffffffffffffffffffffffff169050600073ffffffffffffffffffffffffffffffffffffffff168173ffffffffffffffffffffffffffffffffffffffff1603610ac4576040517f08c379a0000000000000000000000000000000000000000000000000000000008152600401610abb90613805565b60405180910390fd5b80915050919050565b60008073ffffffffffffffffffffffffffffffffffffffff168273ffffffffffffffffffffffffffffffffffffffff1603610b3d576040517f08c379a0000000000000000000000000000000000000000000000000000000008152600401610b3490613897565b60405180910390fd5b606860008373ffffffffffffffffffffffffffffffffffffffff1673ffffffffffffffffffffffffffffffffffffffff168152602001908152602001600020549050919050565b610b8c61197c565b610b9660006119fa565b565b60008060019054906101000a900460ff16159050808015610bc95750600160008054906101000a900460ff1660ff16105b80610bf65750610bd830611ac0565b158015610bf55750600160008054906101000a900460ff1660ff16145b5b610c35576040517f08c379a0000000000000000000000000000000000000000000000000000000008152600401610c2c90613929565b60405180910390fd5b60016000806101000a81548160ff021916908360ff1602179055508015610c72576001600060016101000a81548160ff0219169083151502179055505b610ce66040518060400160405280601c81526020017f424233202d20424545503352202845544853462045646974696f6e29000000008152506040518060400160405280600881526020017f4245455045525346000000000000000000000000000000000000000000000000815250611ae3565b610cee611b40565b610cf6611b99565b610cfe611bf2565b610d06611c43565b610d136000801b3361161b565b610d3d7f65d7a28e3265b37a6474929f336521b332c1681b933f6cb9f3376673440d862a3361161b565b610d677f9f2df0fed2c77648de5860a4cc508cd0818c85b8b8a1ab4ceeef8d981c8956a63361161b565b8015610dc05760008060016101000a81548160ff0219169083151502179055507f7f26b83ff96e1f2b6a682f133852f6798a09c465da95921460cefb38474024986001604051610db79190613991565b60405180910390a15b50565b7f65d7a28e3265b37a6474929f336521b332c1681b933f6cb9f3376673440d862a610ded81611607565b610df5611c94565b50565b600060c960009054906101000a900473ffffffffffffffffffffffffffffffffffffffff16905090565b600060fb600084815260200190815260200160002060000160008373ffffffffffffffffffffffffffffffffffffffff1673ffffffffffffffffffffffffffffffffffffffff16815260200190815260200160002060009054906101000a900460ff16905092915050565b606060668054610e9c90613256565b80601f0160208091040260200160405190810160405280929190818152602001828054610ec890613256565b8015610f155780601f10610eea57610100808354040283529160200191610f15565b820191906000526020600020905b815481529060010190602001808311610ef857829003601f168201915b5050505050905090565b6000801b81565b610f38610f3161124b565b8383611cf7565b5050565b610f4d610f4761124b565b8361130c565b610f8c576040517f08c379a0000000000000000000000000000000000000000000000000000000008152600401610f839061341d565b60405180910390fd5b610f9884848484611e63565b50505050565b6060610fa982611200565b6000610fb3611ebf565b90506000815111610fd35760405180602001604052806000815250610ffe565b80610fdd84611f52565b604051602001610fee9291906139e8565b6040516020818303038152906040525b915050919050565b7f9f2df0fed2c77648de5860a4cc508cd0818c85b8b8a1ab4ceeef8d981c8956a681565b61103382610815565b61103c81611607565b61104683836116fc565b505050565b7f65d7a28e3265b37a6474929f336521b332c1681b933f6cb9f3376673440d862a81565b6000606a60008473ffffffffffffffffffffffffffffffffffffffff1673ffffffffffffffffffffffffffffffffffffffff16815260200190815260200160002060008373ffffffffffffffffffffffffffffffffffffffff1673ffffffffffffffffffffffffffffffffffffffff16815260200190815260200160002060009054906101000a900460ff16905092915050565b61110b61197c565b600073ffffffffffffffffffffffffffffffffffffffff168173ffffffffffffffffffffffffffffffffffffffff160361117a576040517f08c379a000000000000000000000000000000000000000000000000000000000815260040161117190613a7e565b60405180910390fd5b611183816119fa565b50565b60007f7965db0b000000000000000000000000000000000000000000000000000000007bffffffffffffffffffffffffffffffffffffffffffffffffffffffff1916827bffffffffffffffffffffffffffffffffffffffffffffffffffffffff191614806111f957506111f8826120b2565b5b9050919050565b61120981612194565b611248576040517f08c379a000000000000000000000000000000000000000000000000000000000815260040161123f90613805565b60405180910390fd5b50565b600033905090565b816069600083815260200190815260200160002060006101000a81548173ffffffffffffffffffffffffffffffffffffffff021916908373ffffffffffffffffffffffffffffffffffffffff160217905550808273ffffffffffffffffffffffffffffffffffffffff166112c683610a1c565b73ffffffffffffffffffffffffffffffffffffffff167f8c5be1e5ebec7d5bd14f71427d1e84f3dd0314c0f7b2291e5b200ac8c7c3b92560405160405180910390a45050565b60008061131883610a1c565b90508073ffffffffffffffffffffffffffffffffffffffff168473ffffffffffffffffffffffffffffffffffffffff16148061135a5750611359818561106f565b5b8061139857508373ffffffffffffffffffffffffffffffffffffffff1661138084610658565b73ffffffffffffffffffffffffffffffffffffffff16145b91505092915050565b8273ffffffffffffffffffffffffffffffffffffffff166113c182610a1c565b73ffffffffffffffffffffffffffffffffffffffff1614611417576040517f08c379a000000000000000000000000000000000000000000000000000000000815260040161140e90613b10565b60405180910390fd5b600073ffffffffffffffffffffffffffffffffffffffff168273ffffffffffffffffffffffffffffffffffffffff1603611486576040517f08c379a000000000000000000000000000000000000000000000000000000000815260040161147d90613ba2565b60405180910390fd5b611491838383612200565b61149c600082611253565b6001606860008573ffffffffffffffffffffffffffffffffffffffff1673ffffffffffffffffffffffffffffffffffffffff16815260200190815260200160002060008282546114ec9190613bc2565b925050819055506001606860008473ffffffffffffffffffffffffffffffffffffffff1673ffffffffffffffffffffffffffffffffffffffff168152602001908152602001600020600082825461154391906134fe565b92505081905550816067600083815260200190815260200160002060006101000a81548173ffffffffffffffffffffffffffffffffffffffff021916908373ffffffffffffffffffffffffffffffffffffffff160217905550808273ffffffffffffffffffffffffffffffffffffffff168473ffffffffffffffffffffffffffffffffffffffff167fddf252ad1be2c89b69c2b068fc378daa952ba7f163c4a11628f55a4df523b3ef60405160405180910390a4611602838383612218565b505050565b6116188161161361124b565b61221d565b50565b6116258282610e22565b6116f857600160fb600084815260200190815260200160002060000160008373ffffffffffffffffffffffffffffffffffffffff1673ffffffffffffffffffffffffffffffffffffffff16815260200190815260200160002060006101000a81548160ff02191690831515021790555061169d61124b565b73ffffffffffffffffffffffffffffffffffffffff168173ffffffffffffffffffffffffffffffffffffffff16837f2f8788117e7eff1d82e926ec794901d17c78024a50270940304540a733656f0d60405160405180910390a45b5050565b6117068282610e22565b156117da57600060fb600084815260200190815260200160002060000160008373ffffffffffffffffffffffffffffffffffffffff1673ffffffffffffffffffffffffffffffffffffffff16815260200190815260200160002060006101000a81548160ff02191690831515021790555061177f61124b565b73ffffffffffffffffffffffffffffffffffffffff168173ffffffffffffffffffffffffffffffffffffffff16837ff6391f5c32d9c69d2a47ea670b442974b53935d1edc7fd64eb21e047a839171b60405160405180910390a45b5050565b6117e66122ba565b6000609760006101000a81548160ff0219169083151502179055507f5db9ee0a495bf2e6ff9c91a7834c1ba4fdd244a5e8aa4e537bd38aeae4b073aa61182a61124b565b6040516118379190612d18565b60405180910390a1565b61185b828260405180602001604052806000815250612303565b5050565b600061186a82610a1c565b905061187881600084612200565b611883600083611253565b6001606860008373ffffffffffffffffffffffffffffffffffffffff1673ffffffffffffffffffffffffffffffffffffffff16815260200190815260200160002060008282546118d39190613bc2565b925050819055506067600083815260200190815260200160002060006101000a81549073ffffffffffffffffffffffffffffffffffffffff021916905581600073ffffffffffffffffffffffffffffffffffffffff168273ffffffffffffffffffffffffffffffffffffffff167fddf252ad1be2c89b69c2b068fc378daa952ba7f163c4a11628f55a4df523b3ef60405160405180910390a461197881600084612218565b5050565b61198461124b565b73ffffffffffffffffffffffffffffffffffffffff166119a2610df8565b73ffffffffffffffffffffffffffffffffffffffff16146119f8576040517f08c379a00000000000000000000000000000000000000000000000000000000081526004016119ef90613c42565b60405180910390fd5b565b600060c960009054906101000a900473ffffffffffffffffffffffffffffffffffffffff1690508160c960006101000a81548173ffffffffffffffffffffffffffffffffffffffff021916908373ffffffffffffffffffffffffffffffffffffffff1602179055508173ffffffffffffffffffffffffffffffffffffffff168173ffffffffffffffffffffffffffffffffffffffff167f8be0079c531659141344cd1fd0a4f28419497f9722a3daafe3b4186f6b6457e060405160405180910390a35050565b6000808273ffffffffffffffffffffffffffffffffffffffff163b119050919050565b600060019054906101000a900460ff16611b32576040517f08c379a0000000000000000000000000000000000000000000000000000000008152600401611b2990613cd4565b60405180910390fd5b611b3c828261235e565b5050565b600060019054906101000a900460ff16611b8f576040517f08c379a0000000000000000000000000000000000000000000000000000000008152600401611b8690613cd4565b60405180910390fd5b611b976123d1565b565b600060019054906101000a900460ff16611be8576040517f08c379a0000000000000000000000000000000000000000000000000000000008152600401611bdf90613cd4565b60405180910390fd5b611bf061243d565b565b600060019054906101000a900460ff16611c41576040517f08c379a0000000000000000000000000000000000000000000000000000000008152600401611c3890613cd4565b60405180910390fd5b565b600060019054906101000a900460ff16611c92576040517f08c379a0000000000000000000000000000000000000000000000000000000008152600401611c8990613cd4565b60405180910390fd5b565b611c9c61249e565b6001609760006101000a81548160ff0219169083151502179055507f62e78cea01bee320cd4e420270b5ea74000d11b0c9f74754ebdbfc544b05a258611ce061124b565b604051611ced9190612d18565b60405180910390a1565b8173ffffffffffffffffffffffffffffffffffffffff168373ffffffffffffffffffffffffffffffffffffffff1603611d65576040517f08c379a0000000000000000000000000000000000000000000000000000000008152600401611d5c90613d40565b60405180910390fd5b80606a60008573ffffffffffffffffffffffffffffffffffffffff1673ffffffffffffffffffffffffffffffffffffffff16815260200190815260200160002060008473ffffffffffffffffffffffffffffffffffffffff1673ffffffffffffffffffffffffffffffffffffffff16815260200190815260200160002060006101000a81548160ff0219169083151502179055508173ffffffffffffffffffffffffffffffffffffffff168373ffffffffffffffffffffffffffffffffffffffff167f17307eab39ab6107e8899845ad3d59bd9653f200f220920489ca2b5937696c3183604051611e569190612ba7565b60405180910390a3505050565b611e6e8484846113a1565b611e7a848484846124e8565b611eb9576040517f08c379a0000000000000000000000000000000000000000000000000000000008152600401611eb090613dd2565b60405180910390fd5b50505050565b60606101608054611ecf90613256565b80601f0160208091040260200160405190810160405280929190818152602001828054611efb90613256565b8015611f485780601f10611f1d57610100808354040283529160200191611f48565b820191906000526020600020905b815481529060010190602001808311611f2b57829003601f168201915b5050505050905090565b606060008203611f99576040518060400160405280600181526020017f300000000000000000000000000000000000000000000000000000000000000081525090506120ad565b600082905060005b60008214611fcb578080611fb490613df2565b915050600a82611fc49190613e69565b9150611fa1565b60008167ffffffffffffffff811115611fe757611fe6613039565b5b6040519080825280601f01601f1916602001820160405280156120195781602001600182028036833780820191505090505b5090505b600085146120a6576001826120329190613bc2565b9150600a856120419190613e9a565b603061204d91906134fe565b60f81b81838151811061206357612062613ecb565b5b60200101907effffffffffffffffffffffffffffffffffffffffffffffffffffffffffffff1916908160001a905350600a8561209f9190613e69565b945061201d565b8093505050505b919050565b60007f80ac58cd000000000000000000000000000000000000000000000000000000007bffffffffffffffffffffffffffffffffffffffffffffffffffffffff1916827bffffffffffffffffffffffffffffffffffffffffffffffffffffffff1916148061217d57507f5b5e139f000000000000000000000000000000000000000000000000000000007bffffffffffffffffffffffffffffffffffffffffffffffffffffffff1916827bffffffffffffffffffffffffffffffffffffffffffffffffffffffff1916145b8061218d575061218c8261266f565b5b9050919050565b60008073ffffffffffffffffffffffffffffffffffffffff166067600084815260200190815260200160002060009054906101000a900473ffffffffffffffffffffffffffffffffffffffff1673ffffffffffffffffffffffffffffffffffffffff1614159050919050565b61220861249e565b6122138383836126d9565b505050565b505050565b6122278282610e22565b6122b65761224c8173ffffffffffffffffffffffffffffffffffffffff1660146126de565b61225a8360001c60206126de565b60405160200161226b929190613f92565b6040516020818303038152906040526040517f08c379a00000000000000000000000000000000000000000000000000000000081526004016122ad9190612c52565b60405180910390fd5b5050565b6122c2610a05565b612301576040517f08c379a00000000000000000000000000000000000000000000000000000000081526004016122f890614018565b60405180910390fd5b565b61230d838361291a565b61231a60008484846124e8565b612359576040517f08c379a000000000000000000000000000000000000000000000000000000000815260040161235090613dd2565b60405180910390fd5b505050565b600060019054906101000a900460ff166123ad576040517f08c379a00000000000000000000000000000000000000000000000000000000081526004016123a490613cd4565b60405180910390fd5b81606590816123bc9190614038565b5080606690816123cc9190614038565b505050565b600060019054906101000a900460ff16612420576040517f08c379a000000000000000000000000000000000000000000000000000000000815260040161241790613cd4565b60405180910390fd5b6000609760006101000a81548160ff021916908315150217905550565b600060019054906101000a900460ff1661248c576040517f08c379a000000000000000000000000000000000000000000000000000000000815260040161248390613cd4565b60405180910390fd5b61249c61249761124b565b6119fa565b565b6124a6610a05565b156124e6576040517f08c379a00000000000000000000000000000000000000000000000000000000081526004016124dd90614156565b60405180910390fd5b565b60006125098473ffffffffffffffffffffffffffffffffffffffff16611ac0565b15612662578373ffffffffffffffffffffffffffffffffffffffff1663150b7a0261253261124b565b8786866040518563ffffffff1660e01b815260040161255494939291906141cb565b6020604051808303816000875af192505050801561259057506040513d601f19601f8201168201806040525081019061258d919061422c565b60015b612612573d80600081146125c0576040519150601f19603f3d011682016040523d82523d6000602084013e6125c5565b606091505b50600081510361260a576040517f08c379a000000000000000000000000000000000000000000000000000000000815260040161260190613dd2565b60405180910390fd5b805181602001fd5b63150b7a0260e01b7bffffffffffffffffffffffffffffffffffffffffffffffffffffffff1916817bffffffffffffffffffffffffffffffffffffffffffffffffffffffff191614915050612667565b600190505b949350505050565b60007f01ffc9a7000000000000000000000000000000000000000000000000000000007bffffffffffffffffffffffffffffffffffffffffffffffffffffffff1916827bffffffffffffffffffffffffffffffffffffffffffffffffffffffff1916149050919050565b505050565b6060600060028360026126f19190614259565b6126fb91906134fe565b67ffffffffffffffff81111561271457612713613039565b5b6040519080825280601f01601f1916602001820160405280156127465781602001600182028036833780820191505090505b5090507f30000000000000000000000000000000000000000000000000000000000000008160008151811061277e5761277d613ecb565b5b60200101907effffffffffffffffffffffffffffffffffffffffffffffffffffffffffffff1916908160001a9053507f7800000000000000000000000000000000000000000000000000000000000000816001815181106127e2576127e1613ecb565b5b60200101907effffffffffffffffffffffffffffffffffffffffffffffffffffffffffffff1916908160001a905350600060018460026128229190614259565b61282c91906134fe565b90505b60018111156128cc577f3031323334353637383961626364656600000000000000000000000000000000600f86166010811061286e5761286d613ecb565b5b1a60f81b82828151811061288557612884613ecb565b5b60200101907effffffffffffffffffffffffffffffffffffffffffffffffffffffffffffff1916908160001a905350600485901c9450806128c59061429b565b905061282f565b5060008414612910576040517f08c379a000000000000000000000000000000000000000000000000000000000815260040161290790614310565b60405180910390fd5b8091505092915050565b600073ffffffffffffffffffffffffffffffffffffffff168273ffffffffffffffffffffffffffffffffffffffff1603612989576040517f08c379a00000000000000000000000000000000000000000000000000000000081526004016129809061437c565b60405180910390fd5b61299281612194565b156129d2576040517f08c379a00000000000000000000000000000000000000000000000000000000081526004016129c9906143e8565b60405180910390fd5b6129de60008383612200565b6001606860008473ffffffffffffffffffffffffffffffffffffffff1673ffffffffffffffffffffffffffffffffffffffff1681526020019081526020016000206000828254612a2e91906134fe565b92505081905550816067600083815260200190815260200160002060006101000a81548173ffffffffffffffffffffffffffffffffffffffff021916908373ffffffffffffffffffffffffffffffffffffffff160217905550808273ffffffffffffffffffffffffffffffffffffffff16600073ffffffffffffffffffffffffffffffffffffffff167fddf252ad1be2c89b69c2b068fc378daa952ba7f163c4a11628f55a4df523b3ef60405160405180910390a4612aef60008383612218565b5050565b6000604051905090565b600080fd5b600080fd5b60007fffffffff0000000000000000000000000000000000000000000000000000000082169050919050565b612b3c81612b07565b8114612b4757600080fd5b50565b600081359050612b5981612b33565b92915050565b600060208284031215612b7557612b74612afd565b5b6000612b8384828501612b4a565b91505092915050565b60008115159050919050565b612ba181612b8c565b82525050565b6000602082019050612bbc6000830184612b98565b92915050565b600081519050919050565b600082825260208201905092915050565b60005b83811015612bfc578082015181840152602081019050612be1565b60008484015250505050565b6000601f19601f8301169050919050565b6000612c2482612bc2565b612c2e8185612bcd565b9350612c3e818560208601612bde565b612c4781612c08565b840191505092915050565b60006020820190508181036000830152612c6c8184612c19565b905092915050565b6000819050919050565b612c8781612c74565b8114612c9257600080fd5b50565b600081359050612ca481612c7e565b92915050565b600060208284031215612cc057612cbf612afd565b5b6000612cce84828501612c95565b91505092915050565b600073ffffffffffffffffffffffffffffffffffffffff82169050919050565b6000612d0282612cd7565b9050919050565b612d1281612cf7565b82525050565b6000602082019050612d2d6000830184612d09565b92915050565b612d3c81612cf7565b8114612d4757600080fd5b50565b600081359050612d5981612d33565b92915050565b60008060408385031215612d7657612d75612afd565b5b6000612d8485828601612d4a565b9250506020612d9585828601612c95565b9150509250929050565b600080600060608486031215612db857612db7612afd565b5b6000612dc686828701612d4a565b9350506020612dd786828701612d4a565b9250506040612de886828701612c95565b9150509250925092565b6000819050919050565b612e0581612df2565b8114612e1057600080fd5b50565b600081359050612e2281612dfc565b92915050565b600060208284031215612e3e57612e3d612afd565b5b6000612e4c84828501612e13565b91505092915050565b612e5e81612df2565b82525050565b6000602082019050612e796000830184612e55565b92915050565b60008060408385031215612e9657612e95612afd565b5b6000612ea485828601612e13565b9250506020612eb585828601612d4a565b9150509250929050565b600060208284031215612ed557612ed4612afd565b5b6000612ee384828501612d4a565b91505092915050565b600080fd5b600080fd5b600080fd5b60008083601f840112612f1157612f10612eec565b5b8235905067ffffffffffffffff811115612f2e57612f2d612ef1565b5b602083019150836001820283011115612f4a57612f49612ef6565b5b9250929050565b60008060208385031215612f6857612f67612afd565b5b600083013567ffffffffffffffff811115612f8657612f85612b02565b5b612f9285828601612efb565b92509250509250929050565b612fa781612c74565b82525050565b6000602082019050612fc26000830184612f9e565b92915050565b612fd181612b8c565b8114612fdc57600080fd5b50565b600081359050612fee81612fc8565b92915050565b6000806040838503121561300b5761300a612afd565b5b600061301985828601612d4a565b925050602061302a85828601612fdf565b9150509250929050565b600080fd5b7f4e487b7100000000000000000000000000000000000000000000000000000000600052604160045260246000fd5b61307182612c08565b810181811067ffffffffffffffff821117156130905761308f613039565b5b80604052505050565b60006130a3612af3565b90506130af8282613068565b919050565b600067ffffffffffffffff8211156130cf576130ce613039565b5b6130d882612c08565b9050602081019050919050565b82818337600083830152505050565b6000613107613102846130b4565b613099565b90508281526020810184848401111561312357613122613034565b5b61312e8482856130e5565b509392505050565b600082601f83011261314b5761314a612eec565b5b813561315b8482602086016130f4565b91505092915050565b6000806000806080858703121561317e5761317d612afd565b5b600061318c87828801612d4a565b945050602061319d87828801612d4a565b93505060406131ae87828801612c95565b925050606085013567ffffffffffffffff8111156131cf576131ce612b02565b5b6131db87828801613136565b91505092959194509250565b600080604083850312156131fe576131fd612afd565b5b600061320c85828601612d4a565b925050602061321d85828601612d4a565b9150509250929050565b7f4e487b7100000000000000000000000000000000000000000000000000000000600052602260045260246000fd5b6000600282049050600182168061326e57607f821691505b60208210810361328157613280613227565b5b50919050565b7f4552433732313a20617070726f76616c20746f2063757272656e74206f776e6560008201527f7200000000000000000000000000000000000000000000000000000000000000602082015250565b60006132e3602183612bcd565b91506132ee82613287565b604082019050919050565b60006020820190508181036000830152613312816132d6565b9050919050565b7f4552433732313a20617070726f76652063616c6c6572206973206e6f7420746f60008201527f6b656e206f776e6572206e6f7220617070726f76656420666f7220616c6c0000602082015250565b6000613375603e83612bcd565b915061338082613319565b604082019050919050565b600060208201905081810360008301526133a481613368565b9050919050565b7f4552433732313a2063616c6c6572206973206e6f7420746f6b656e206f776e6560008201527f72206e6f7220617070726f766564000000000000000000000000000000000000602082015250565b6000613407602e83612bcd565b9150613412826133ab565b604082019050919050565b60006020820190508181036000830152613436816133fa565b9050919050565b7f416363657373436f6e74726f6c3a2063616e206f6e6c792072656e6f756e636560008201527f20726f6c657320666f722073656c660000000000000000000000000000000000602082015250565b6000613499602f83612bcd565b91506134a48261343d565b604082019050919050565b600060208201905081810360008301526134c88161348c565b9050919050565b7f4e487b7100000000000000000000000000000000000000000000000000000000600052601160045260246000fd5b600061350982612c74565b915061351483612c74565b925082820190508082111561352c5761352b6134cf565b5b92915050565b600082905092915050565b60008190508160005260206000209050919050565b60006020601f8301049050919050565b600082821b905092915050565b60006008830261359f7fffffffffffffffffffffffffffffffffffffffffffffffffffffffffffffffff82613562565b6135a98683613562565b95508019841693508086168417925050509392505050565b6000819050919050565b60006135e66135e16135dc84612c74565b6135c1565b612c74565b9050919050565b6000819050919050565b613600836135cb565b61361461360c826135ed565b84845461356f565b825550505050565b600090565b61362961361c565b6136348184846135f7565b505050565b5b818110156136585761364d600082613621565b60018101905061363a565b5050565b601f82111561369d5761366e8161353d565b61367784613552565b81016020851015613686578190505b61369a61369285613552565b830182613639565b50505b505050565b600082821c905092915050565b60006136c0600019846008026136a2565b1980831691505092915050565b60006136d983836136af565b9150826002028217905092915050565b6136f38383613532565b67ffffffffffffffff81111561370c5761370b613039565b5b6137168254613256565b61372182828561365c565b6000601f831160018114613750576000841561373e578287013590505b61374885826136cd565b8655506137b0565b601f19841661375e8661353d565b60005b8281101561378657848901358255600182019150602085019450602081019050613761565b868310156137a3578489013561379f601f8916826136af565b8355505b6001600288020188555050505b50505050505050565b7f4552433732313a20696e76616c696420746f6b656e2049440000000000000000600082015250565b60006137ef601883612bcd565b91506137fa826137b9565b602082019050919050565b6000602082019050818103600083015261381e816137e2565b9050919050565b7f4552433732313a2061646472657373207a65726f206973206e6f74206120766160008201527f6c6964206f776e65720000000000000000000000000000000000000000000000602082015250565b6000613881602983612bcd565b915061388c82613825565b604082019050919050565b600060208201905081810360008301526138b081613874565b9050919050565b7f496e697469616c697a61626c653a20636f6e747261637420697320616c72656160008201527f647920696e697469616c697a6564000000000000000000000000000000000000602082015250565b6000613913602e83612bcd565b915061391e826138b7565b604082019050919050565b6000602082019050818103600083015261394281613906565b9050919050565b6000819050919050565b600060ff82169050919050565b600061397b61397661397184613949565b6135c1565b613953565b9050919050565b61398b81613960565b82525050565b60006020820190506139a66000830184613982565b92915050565b600081905092915050565b60006139c282612bc2565b6139cc81856139ac565b93506139dc818560208601612bde565b80840191505092915050565b60006139f482856139b7565b9150613a0082846139b7565b91508190509392505050565b7f4f776e61626c653a206e6577206f776e657220697320746865207a65726f206160008201527f6464726573730000000000000000000000000000000000000000000000000000602082015250565b6000613a68602683612bcd565b9150613a7382613a0c565b604082019050919050565b60006020820190508181036000830152613a9781613a5b565b9050919050565b7f4552433732313a207472616e736665722066726f6d20696e636f72726563742060008201527f6f776e6572000000000000000000000000000000000000000000000000000000602082015250565b6000613afa602583612bcd565b9150613b0582613a9e565b604082019050919050565b60006020820190508181036000830152613b2981613aed565b9050919050565b7f4552433732313a207472616e7366657220746f20746865207a65726f2061646460008201527f7265737300000000000000000000000000000000000000000000000000000000602082015250565b6000613b8c602483612bcd565b9150613b9782613b30565b604082019050919050565b60006020820190508181036000830152613bbb81613b7f565b9050919050565b6000613bcd82612c74565b9150613bd883612c74565b9250828203905081811115613bf057613bef6134cf565b5b92915050565b7f4f776e61626c653a2063616c6c6572206973206e6f7420746865206f776e6572600082015250565b6000613c2c602083612bcd565b9150613c3782613bf6565b602082019050919050565b60006020820190508181036000830152613c5b81613c1f565b9050919050565b7f496e697469616c697a61626c653a20636f6e7472616374206973206e6f74206960008201527f6e697469616c697a696e67000000000000000000000000000000000000000000602082015250565b6000613cbe602b83612bcd565b9150613cc982613c62565b604082019050919050565b60006020820190508181036000830152613ced81613cb1565b9050919050565b7f4552433732313a20617070726f766520746f2063616c6c657200000000000000600082015250565b6000613d2a601983612bcd565b9150613d3582613cf4565b602082019050919050565b60006020820190508181036000830152613d5981613d1d565b9050919050565b7f4552433732313a207472616e7366657220746f206e6f6e20455243373231526560008201527f63656976657220696d706c656d656e7465720000000000000000000000000000602082015250565b6000613dbc603283612bcd565b9150613dc782613d60565b604082019050919050565b60006020820190508181036000830152613deb81613daf565b9050919050565b6000613dfd82612c74565b91507fffffffffffffffffffffffffffffffffffffffffffffffffffffffffffffffff8203613e2f57613e2e6134cf565b5b600182019050919050565b7f4e487b7100000000000000000000000000000000000000000000000000000000600052601260045260246000fd5b6000613e7482612c74565b9150613e7f83612c74565b925082613e8f57613e8e613e3a565b5b828204905092915050565b6000613ea582612c74565b9150613eb083612c74565b925082613ec057613ebf613e3a565b5b828206905092915050565b7f4e487b7100000000000000000000000000000000000000000000000000000000600052603260045260246000fd5b7f416363657373436f6e74726f6c3a206163636f756e7420000000000000000000600082015250565b6000613f306017836139ac565b9150613f3b82613efa565b601782019050919050565b7f206973206d697373696e6720726f6c6520000000000000000000000000000000600082015250565b6000613f7c6011836139ac565b9150613f8782613f46565b601182019050919050565b6000613f9d82613f23565b9150613fa982856139b7565b9150613fb482613f6f565b9150613fc082846139b7565b91508190509392505050565b7f5061757361626c653a206e6f7420706175736564000000000000000000000000600082015250565b6000614002601483612bcd565b915061400d82613fcc565b602082019050919050565b6000602082019050818103600083015261403181613ff5565b9050919050565b61404182612bc2565b67ffffffffffffffff81111561405a57614059613039565b5b6140648254613256565b61406f82828561365c565b600060209050601f8311600181146140a25760008415614090578287015190505b61409a85826136cd565b865550614102565b601f1984166140b08661353d565b60005b828110156140d8578489015182556001820191506020850194506020810190506140b3565b868310156140f557848901516140f1601f8916826136af565b8355505b6001600288020188555050505b505050505050565b7f5061757361626c653a2070617573656400000000000000000000000000000000600082015250565b6000614140601083612bcd565b915061414b8261410a565b602082019050919050565b6000602082019050818103600083015261416f81614133565b9050919050565b600081519050919050565b600082825260208201905092915050565b600061419d82614176565b6141a78185614181565b93506141b7818560208601612bde565b6141c081612c08565b840191505092915050565b60006080820190506141e06000830187612d09565b6141ed6020830186612d09565b6141fa6040830185612f9e565b818103606083015261420c8184614192565b905095945050505050565b60008151905061422681612b33565b92915050565b60006020828403121561424257614241612afd565b5b600061425084828501614217565b91505092915050565b600061426482612c74565b915061426f83612c74565b925082820261427d81612c74565b91508282048414831517614294576142936134cf565b5b5092915050565b60006142a682612c74565b9150600082036142b9576142b86134cf565b5b600182039050919050565b7f537472696e67733a20686578206c656e67746820696e73756666696369656e74600082015250565b60006142fa602083612bcd565b9150614305826142c4565b602082019050919050565b60006020820190508181036000830152614329816142ed565b9050919050565b7f4552433732313a206d696e7420746f20746865207a65726f2061646472657373600082015250565b6000614366602083612bcd565b915061437182614330565b602082019050919050565b6000602082019050818103600083015261439581614359565b9050919050565b7f4552433732313a20746f6b656e20616c7265616479206d696e74656400000000600082015250565b60006143d2601c83612bcd565b91506143dd8261439c565b602082019050919050565b60006020820190508181036000830152614401816143c5565b905091905056fea2646970667358221220d1c2cc1f8e2e25812980509d7640ca863c0724fae85b0ab3f726f95fa7e9f97164736f6c63430008110033",
  "linkReferences": {},
  "deployedLinkReferences": {}
}